:020000040000FA
:040000000128FE2FA6
:100EDA00F70022000C128C127708873178278731A5
:100EEA0022008C160800F400F201F301F501F60164
:100EFA000130F000750A822FF035890B812F7008B6
:100F0A0074050319892F8A2F9A2F0130F0000030B7
:100F1A00F1007508073C890A942FF035F10D890B09
:100F2A00922F7008F2047108F3040130F5070030BB
:100F3A00F63D7608803AF00080307002031DA72F34
:100F4A0008307502031CAA2FAB2F7D2F240011082D
:100F5A0074089100141CB22FB32FAF2F080032006F
:100F6A001B1EB82FB92FB42F21000C108C100C1196
:100F7A000C128C1222000C118C120C105330890B9B
:100F8A00C42F000022000C158B1355303C008F0033
:100F9A00AA308F008F013D001008E0391838900000
:100FAA001108E03919389100240094131417151206
:100FBA001508F03902389500951617139712220072
:100FCA000C115330890BE72F000022000C15AE30AC
:100FDA0087316D278731A43087316D278731AF304C
:100FEA0087316D278731A53087316D278731FC2FEF
:060FFA0001282000B42FC5
:020000040001F9
:08000E00ECFFF3FFFFFFFFFF11
:00000001FF
